{
  "contractName": "Bid",
  "abi": [
    {
      "inputs": [
        {
          "internalType": "string",
          "name": "",
          "type": "string"
        }
      ],
      "name": "propertyVoteDetails",
      "outputs": [
        {
          "internalType": "uint256",
          "name": "voteCount",
          "type": "uint256"
        }
      ],
      "stateMutability": "view",
      "type": "function"
    },
    {
      "inputs": [
        {
          "internalType": "string",
          "name": "propertyId",
          "type": "string"
        }
      ],
      "name": "vote",
      "outputs": [
        {
          "internalType": "bool",
          "name": "",
          "type": "bool"
        }
      ],
      "stateMutability": "nonpayable",
      "type": "function"
    },
    {
      "inputs": [
        {
          "internalType": "string",
          "name": "propertyId",
          "type": "string"
        }
      ],
      "name": "getVoteCount",
      "outputs": [
        {
          "internalType": "uint256",
          "name": "",
          "type": "uint256"
        }
      ],
      "stateMutability": "view",
      "type": "function"
    }
  ],
  "bytecode": "0x608060405234801561001057600080fd5b506106cf806100206000396000f3fe608060405234801561001057600080fd5b50600436106100415760003560e01c8063069953a714610046578063e65e488814610076578063fc36e15b146100a6575b600080fd5b610060600480360381019061005b9190610326565b6100d6565b60405161006d919061046e565b60405180910390f35b610090600480360381019061008b9190610326565b610106565b60405161009d919061046e565b60405180910390f35b6100c060048036038101906100bb9190610326565b61013a565b6040516100cd9190610413565b60405180910390f35b6000806000836040516100e991906103fc565b908152602001604051809103902090508060010154915050919050565b6000818051602081018201805184825260208301602085012081835280955050505050506000915090508060010154905081565b60008060008360405161014d91906103fc565b9081526020016040518091039020905060058160010154106101a4576040517f08c379a000000000000000000000000000000000000000000000000000000000815260040161019b9061042e565b60405180910390fd5b60008160000190508060003373ffffffffffffffffffffffffffffffffffffffff1673ffffffffffffffffffffffffffffffffffffffff16815260200190815260200160002060009054906101000a900460ff1615610238576040517f08c379a000000000000000000000000000000000000000000000000000000000815260040161022f9061044e565b60405180910390fd5b81600101600081548092919061024d9061058f565b919050555060018260000160003373ffffffffffffffffffffffffffffffffffffffff1673ffffffffffffffffffffffffffffffffffffffff16815260200190815260200160002060006101000a81548160ff02191690831515021790555060058260010154101592505050919050565b60006102d16102cc846104ae565b610489565b9050828152602081018484840111156102e957600080fd5b6102f484828561051c565b509392505050565b600082601f83011261030d57600080fd5b813561031d8482602086016102be565b91505092915050565b60006020828403121561033857600080fd5b600082013567ffffffffffffffff81111561035257600080fd5b61035e848285016102fc565b91505092915050565b61037081610506565b82525050565b6000610381826104df565b61038b81856104fb565b935061039b81856020860161052b565b80840191505092915050565b60006103b4600f836104ea565b91506103bf82610647565b602082019050919050565b60006103d76016836104ea565b91506103e282610670565b602082019050919050565b6103f681610512565b82525050565b60006104088284610376565b915081905092915050565b60006020820190506104286000830184610367565b92915050565b60006020820190508181036000830152610447816103a7565b9050919050565b60006020820190508181036000830152610467816103ca565b9050919050565b600060208201905061048360008301846103ed565b92915050565b60006104936104a4565b905061049f828261055e565b919050565b6000604051905090565b600067ffffffffffffffff8211156104c9576104c8610607565b5b6104d282610636565b9050602081019050919050565b600081519050919050565b600082825260208201905092915050565b600081905092915050565b60008115159050919050565b6000819050919050565b82818337600083830152505050565b60005b8381101561054957808201518184015260208101905061052e565b83811115610558576000848401525b50505050565b61056782610636565b810181811067ffffffffffffffff8211171561058657610585610607565b5b80604052505050565b600061059a82610512565b91507fffffffffffffffffffffffffffffffffffffffffffffffffffffffffffffffff8214156105cd576105cc6105d8565b5b600182019050919050565b7f4e487b7100000000000000000000000000000000000000000000000000000000600052601160045260246000fd5b7f4e487b7100000000000000000000000000000000000000000000000000000000600052604160045260246000fd5b6000601f19601f8301169050919050565b7f42696464696e67206973204f7665720000000000000000000000000000000000600082015250565b7f557365722068617320616c726561647920766f7465640000000000000000000060008201525056fea264697066735822122072ddaa63ec61044987ce5e91310413722af0dd28ad2e581a5352467bd858ee9764736f6c63430008010033",
  "immutableReferences": {},
  "source": "// SPDX-License-Identifier: MIT\npragma solidity >=0.7.21 <0.9.0;\ncontract Bid{\n    struct voteDetails {\n        mapping (address => bool) userIds;\n        uint voteCount;\n    }\n    mapping(string=>voteDetails) public propertyVoteDetails;\n\n    function vote(string memory propertyId)public returns(bool){\n        voteDetails storage vd = propertyVoteDetails[propertyId];\n        require(vd.voteCount <5, \"Bidding is Over\");\n        mapping (address => bool) storage userIds = vd.userIds;\n        require(!userIds[msg.sender], \"User has already voted\");\n        vd.voteCount++;\n        vd.userIds[msg.sender] = true;\n        return vd.voteCount>=5;\n    }\n\n    function getVoteCount(string memory propertyId)public view returns (uint){\n        voteDetails storage vd = propertyVoteDetails[propertyId];\n        return vd.voteCount;\n    }\n}",
  "sourcePath": "/Users/shubhankarkumar/Documents/Cryproperty/contract/contracts/Bid.sol",
  "compiler": {
    "name": "solc",
    "version": "0.8.1+commit.df193b15.Emscripten.clang"
  },
  "schemaVersion": "3.4.10",
  "updatedAt": "2022-12-09T01:24:40.963Z",
  "devdoc": {
    "kind": "dev",
    "methods": {},
    "version": 1
  },
  "userdoc": {
    "kind": "user",
    "methods": {},
    "version": 1
  }
}