{
  "contractName": "MyPROP",
  "abi": [
    {
      "inputs": [],
      "stateMutability": "nonpayable",
      "type": "constructor"
    },
    {
      "anonymous": false,
      "inputs": [
        {
          "indexed": true,
          "internalType": "address",
          "name": "owner",
          "type": "address"
        },
        {
          "indexed": true,
          "internalType": "address",
          "name": "approved",
          "type": "address"
        },
        {
          "indexed": true,
          "internalType": "uint256",
          "name": "tokenId",
          "type": "uint256"
        }
      ],
      "name": "Approval",
      "type": "event"
    },
    {
      "anonymous": false,
      "inputs": [
        {
          "indexed": true,
          "internalType": "address",
          "name": "owner",
          "type": "address"
        },
        {
          "indexed": true,
          "internalType": "address",
          "name": "operator",
          "type": "address"
        },
        {
          "indexed": false,
          "internalType": "bool",
          "name": "approved",
          "type": "bool"
        }
      ],
      "name": "ApprovalForAll",
      "type": "event"
    },
    {
      "anonymous": false,
      "inputs": [
        {
          "indexed": true,
          "internalType": "address",
          "name": "previousOwner",
          "type": "address"
        },
        {
          "indexed": true,
          "internalType": "address",
          "name": "newOwner",
          "type": "address"
        }
      ],
      "name": "OwnershipTransferred",
      "type": "event"
    },
    {
      "anonymous": false,
      "inputs": [
        {
          "indexed": true,
          "internalType": "address",
          "name": "from",
          "type": "address"
        },
        {
          "indexed": true,
          "internalType": "address",
          "name": "to",
          "type": "address"
        },
        {
          "indexed": true,
          "internalType": "uint256",
          "name": "tokenId",
          "type": "uint256"
        }
      ],
      "name": "Transfer",
      "type": "event"
    },
    {
      "inputs": [
        {
          "internalType": "address",
          "name": "to",
          "type": "address"
        },
        {
          "internalType": "uint256",
          "name": "tokenId",
          "type": "uint256"
        }
      ],
      "name": "approve",
      "outputs": [],
      "stateMutability": "nonpayable",
      "type": "function"
    },
    {
      "inputs": [
        {
          "internalType": "address",
          "name": "owner",
          "type": "address"
        }
      ],
      "name": "balanceOf",
      "outputs": [
        {
          "internalType": "uint256",
          "name": "",
          "type": "uint256"
        }
      ],
      "stateMutability": "view",
      "type": "function",
      "constant": true
    },
    {
      "inputs": [
        {
          "internalType": "uint256",
          "name": "tokenId",
          "type": "uint256"
        }
      ],
      "name": "getApproved",
      "outputs": [
        {
          "internalType": "address",
          "name": "",
          "type": "address"
        }
      ],
      "stateMutability": "view",
      "type": "function",
      "constant": true
    },
    {
      "inputs": [
        {
          "internalType": "address",
          "name": "owner",
          "type": "address"
        },
        {
          "internalType": "address",
          "name": "operator",
          "type": "address"
        }
      ],
      "name": "isApprovedForAll",
      "outputs": [
        {
          "internalType": "bool",
          "name": "",
          "type": "bool"
        }
      ],
      "stateMutability": "view",
      "type": "function",
      "constant": true
    },
    {
      "inputs": [],
      "name": "name",
      "outputs": [
        {
          "internalType": "string",
          "name": "",
          "type": "string"
        }
      ],
      "stateMutability": "view",
      "type": "function",
      "constant": true
    },
    {
      "inputs": [],
      "name": "owner",
      "outputs": [
        {
          "internalType": "address",
          "name": "",
          "type": "address"
        }
      ],
      "stateMutability": "view",
      "type": "function",
      "constant": true
    },
    {
      "inputs": [
        {
          "internalType": "address",
          "name": "",
          "type": "address"
        },
        {
          "internalType": "string",
          "name": "",
          "type": "string"
        },
        {
          "internalType": "uint256",
          "name": "",
          "type": "uint256"
        }
      ],
      "name": "ownerDetails",
      "outputs": [
        {
          "internalType": "uint256",
          "name": "",
          "type": "uint256"
        }
      ],
      "stateMutability": "view",
      "type": "function",
      "constant": true
    },
    {
      "inputs": [
        {
          "internalType": "uint256",
          "name": "tokenId",
          "type": "uint256"
        }
      ],
      "name": "ownerOf",
      "outputs": [
        {
          "internalType": "address",
          "name": "",
          "type": "address"
        }
      ],
      "stateMutability": "view",
      "type": "function",
      "constant": true
    },
    {
      "inputs": [],
      "name": "renounceOwnership",
      "outputs": [],
      "stateMutability": "nonpayable",
      "type": "function"
    },
    {
      "inputs": [
        {
          "internalType": "address",
          "name": "from",
          "type": "address"
        },
        {
          "internalType": "address",
          "name": "to",
          "type": "address"
        },
        {
          "internalType": "uint256",
          "name": "tokenId",
          "type": "uint256"
        }
      ],
      "name": "safeTransferFrom",
      "outputs": [],
      "stateMutability": "nonpayable",
      "type": "function"
    },
    {
      "inputs": [
        {
          "internalType": "address",
          "name": "from",
          "type": "address"
        },
        {
          "internalType": "address",
          "name": "to",
          "type": "address"
        },
        {
          "internalType": "uint256",
          "name": "tokenId",
          "type": "uint256"
        },
        {
          "internalType": "bytes",
          "name": "data",
          "type": "bytes"
        }
      ],
      "name": "safeTransferFrom",
      "outputs": [],
      "stateMutability": "nonpayable",
      "type": "function"
    },
    {
      "inputs": [
        {
          "internalType": "address",
          "name": "operator",
          "type": "address"
        },
        {
          "internalType": "bool",
          "name": "approved",
          "type": "bool"
        }
      ],
      "name": "setApprovalForAll",
      "outputs": [],
      "stateMutability": "nonpayable",
      "type": "function"
    },
    {
      "inputs": [
        {
          "internalType": "bytes4",
          "name": "interfaceId",
          "type": "bytes4"
        }
      ],
      "name": "supportsInterface",
      "outputs": [
        {
          "internalType": "bool",
          "name": "",
          "type": "bool"
        }
      ],
      "stateMutability": "view",
      "type": "function",
      "constant": true
    },
    {
      "inputs": [],
      "name": "symbol",
      "outputs": [
        {
          "internalType": "string",
          "name": "",
          "type": "string"
        }
      ],
      "stateMutability": "view",
      "type": "function",
      "constant": true
    },
    {
      "inputs": [
        {
          "internalType": "address",
          "name": "from",
          "type": "address"
        },
        {
          "internalType": "address",
          "name": "to",
          "type": "address"
        },
        {
          "internalType": "uint256",
          "name": "tokenId",
          "type": "uint256"
        }
      ],
      "name": "transferFrom",
      "outputs": [],
      "stateMutability": "nonpayable",
      "type": "function"
    },
    {
      "inputs": [
        {
          "internalType": "address",
          "name": "newOwner",
          "type": "address"
        }
      ],
      "name": "transferOwnership",
      "outputs": [],
      "stateMutability": "nonpayable",
      "type": "function"
    },
    {
      "inputs": [
        {
          "internalType": "address",
          "name": "to",
          "type": "address"
        }
      ],
      "name": "safeMint",
      "outputs": [],
      "stateMutability": "payable",
      "type": "function",
      "payable": true
    },
    {
      "inputs": [
        {
          "internalType": "address",
          "name": "to",
          "type": "address"
        },
        {
          "internalType": "string",
          "name": "propertyId",
          "type": "string"
        }
      ],
      "name": "safeMint",
      "outputs": [],
      "stateMutability": "payable",
      "type": "function",
      "payable": true
    },
    {
      "inputs": [
        {
          "internalType": "address",
          "name": "from",
          "type": "address"
        },
        {
          "internalType": "address",
          "name": "to",
          "type": "address"
        },
        {
          "internalType": "string",
          "name": "propertyId",
          "type": "string"
        }
      ],
      "name": "transfer",
      "outputs": [],
      "stateMutability": "payable",
      "type": "function",
      "payable": true
    },
    {
      "inputs": [
        {
          "internalType": "uint256",
          "name": "tokenId",
          "type": "uint256"
        }
      ],
      "name": "tokenURI",
      "outputs": [
        {
          "internalType": "string",
          "name": "",
          "type": "string"
        }
      ],
      "stateMutability": "view",
      "type": "function",
      "constant": true
    }
  ],
  "bytecode": "0x60806040526040518060800160405280605081526020016200367b605091396009908051906020019062000035929190620001d8565b503480156200004357600080fd5b506040518060400160405280600681526020017f4d7950524f5000000000000000000000000000000000000000000000000000008152506040518060400160405280600381526020017f50525000000000000000000000000000000000000000000000000000000000008152508160009080519060200190620000c8929190620001d8565b508060019080519060200190620000e1929190620001d8565b50505062000104620000f86200010a60201b60201c565b6200011260201b60201c565b620002ed565b600033905090565b6000600760009054906101000a900473ffffffffffffffffffffffffffffffffffffffff16905081600760006101000a81548173ffffffffffffffffffffffffffffffffffffffff021916908373ffffffffffffffffffffffffffffffffffffffff1602179055508173ffffffffffffffffffffffffffffffffffffffff168173ffffffffffffffffffffffffffffffffffffffff167f8be0079c531659141344cd1fd0a4f28419497f9722a3daafe3b4186f6b6457e060405160405180910390a35050565b828054620001e69062000288565b90600052602060002090601f0160209004810192826200020a576000855562000256565b82601f106200022557805160ff191683800117855562000256565b8280016001018555821562000256579182015b828111156200025557825182559160200191906001019062000238565b5b50905062000265919062000269565b5090565b5b80821115620002845760008160009055506001016200026a565b5090565b60006002820490506001821680620002a157607f821691505b60208210811415620002b857620002b7620002be565b5b50919050565b7f4e487b7100000000000000000000000000000000000000000000000000000000600052602260045260246000fd5b61337e80620002fd6000396000f3fe60806040526004361061011f5760003560e01c8063715018a6116100a0578063c87b56dd11610064578063c87b56dd146103b5578063d0471047146103f2578063d204c45e1461042f578063e985e9c51461044b578063f2fde38b146104885761011f565b8063715018a6146102f65780638da5cb5b1461030d57806395d89b4114610338578063a22cb46514610363578063b88d4fde1461038c5761011f565b8063397bfa92116100e7578063397bfa921461021b57806340d097c31461023757806342842e0e146102535780636352211e1461027c57806370a08231146102b95761011f565b806301ffc9a71461012457806306fdde0314610161578063081812fc1461018c578063095ea7b3146101c957806323b872dd146101f2575b600080fd5b34801561013057600080fd5b5061014b600480360381019061014691906125a7565b6104b1565b604051610158919061297d565b60405180910390f35b34801561016d57600080fd5b50610176610593565b6040516101839190612998565b60405180910390f35b34801561019857600080fd5b506101b360048036038101906101ae91906125f9565b610625565b6040516101c09190612916565b60405180910390f35b3480156101d557600080fd5b506101f060048036038101906101eb919061256b565b61066b565b005b3480156101fe57600080fd5b50610219600480360381019061021491906123aa565b610783565b005b61023560048036038101906102309190612343565b6107e3565b005b610251600480360381019061024c91906122de565b610ac7565b005b34801561025f57600080fd5b5061027a600480360381019061027591906123aa565b610bae565b005b34801561028857600080fd5b506102a3600480360381019061029e91906125f9565b610bce565b6040516102b09190612916565b60405180910390f35b3480156102c557600080fd5b506102e060048036038101906102db91906122de565b610c55565b6040516102ed9190612b9a565b60405180910390f35b34801561030257600080fd5b5061030b610d0d565b005b34801561031957600080fd5b50610322610d21565b60405161032f9190612916565b60405180910390f35b34801561034457600080fd5b5061034d610d4b565b60405161035a9190612998565b60405180910390f35b34801561036f57600080fd5b5061038a60048036038101906103859190612474565b610ddd565b005b34801561039857600080fd5b506103b360048036038101906103ae91906123f9565b610df3565b005b3480156103c157600080fd5b506103dc60048036038101906103d791906125f9565b610e55565b6040516103e99190612998565b60405180910390f35b3480156103fe57600080fd5b5061041960048036038101906104149190612504565b610efa565b6040516104269190612b9a565b60405180910390f35b610449600480360381019061044491906124b0565b610f4e565b005b34801561045757600080fd5b50610472600480360381019061046d9190612307565b6110b8565b60405161047f919061297d565b60405180910390f35b34801561049457600080fd5b506104af60048036038101906104aa91906122de565b61114c565b005b60007f80ac58cd000000000000000000000000000000000000000000000000000000007bffffffffffffffffffffffffffffffffffffffffffffffffffffffff1916827bffffffffffffffffffffffffffffffffffffffffffffffffffffffff1916148061057c57507f5b5e139f000000000000000000000000000000000000000000000000000000007bffffffffffffffffffffffffffffffffffffffffffffffffffffffff1916827bffffffffffffffffffffffffffffffffffffffffffffffffffffffff1916145b8061058c575061058b826111d0565b5b9050919050565b6060600080546105a290612dbf565b80601f01602080910402602001604051908101604052809291908181526020018280546105ce90612dbf565b801561061b5780601f106105f05761010080835404028352916020019161061b565b820191906000526020600020905b8154815290600101906020018083116105fe57829003601f168201915b5050505050905090565b60006106308261123a565b6004600083815260200190815260200160002060009054906101000a900473ffffffffffffffffffffffffffffffffffffffff169050919050565b600061067682610bce565b90508073ffffffffffffffffffffffffffffffffffffffff168373ffffffffffffffffffffffffffffffffffffffff1614156106e7576040517f08c379a00000000000000000000000000000000000000000000000000000000081526004016106de90612b5a565b60405180910390fd5b8073ffffffffffffffffffffffffffffffffffffffff16610706611285565b73ffffffffffffffffffffffffffffffffffffffff16148061073557506107348161072f611285565b6110b8565b5b610774576040517f08c379a000000000000000000000000000000000000000000000000000000000815260040161076b90612b7a565b60405180910390fd5b61077e838361128d565b505050565b61079461078e611285565b82611346565b6107d3576040517f08c379a00000000000000000000000000000000000000000000000000000000081526004016107ca906129ba565b60405180910390fd5b6107de8383836113db565b505050565b6000600b60008573ffffffffffffffffffffffffffffffffffffffff1673ffffffffffffffffffffffffffffffffffffffff1681526020019081526020016000208260405161083291906128ff565b9081526020016040518091039020600081548110610879577f4e487b7100000000000000000000000000000000000000000000000000000000600052603260045260246000fd5b90600052602060002001549050600081116108c9576040517f08c379a00000000000000000000000000000000000000000000000000000000081526004016108c090612a9a565b60405180910390fd5b6108d4848483610bae565b600b60008473ffffffffffffffffffffffffffffffffffffffff1673ffffffffffffffffffffffffffffffffffffffff1681526020019081526020016000208260405161092191906128ff565b90815260200160405180910390208190806001815401808255809150506001900390600052602060002001600090919091909150556000600b60008673ffffffffffffffffffffffffffffffffffffffff1673ffffffffffffffffffffffffffffffffffffffff168152602001908152602001600020836040516109a591906128ff565b908152602001604051809103902090506000600190505b8180549050811015610a72578181806109d490612e22565b925081548110610a0d577f4e487b7100000000000000000000000000000000000000000000000000000000600052603260045260246000fd5b9060005260206000200154828281548110610a51577f4e487b7100000000000000000000000000000000000000000000000000000000600052603260045260246000fd5b90600052602060002001819055508080610a6a90612e22565b9150506109bc565b5080805480610aaa577f4e487b7100000000000000000000000000000000000000000000000000000000600052603160045260246000fd5b600190038181906000526020600020016000905590555050505050565b6000610ad360086116d5565b9050610adf60086116e3565b610ae982826116f9565b610b7d8160098054610afa90612dbf565b80601f0160208091040260200160405190810160405280929190818152602001828054610b2690612dbf565b8015610b735780601f10610b4857610100808354040283529160200191610b73565b820191906000526020600020905b815481529060010190602001808311610b5657829003601f168201915b5050505050611717565b6009600a6000838152602001908152602001600020908054610b9e90612dbf565b610ba9929190612075565b505050565b610bc983838360405180602001604052806000815250610df3565b505050565b600080610bda8361178b565b9050600073ffffffffffffffffffffffffffffffffffffffff168173ffffffffffffffffffffffffffffffffffffffff161415610c4c576040517f08c379a0000000000000000000000000000000000000000000000000000000008152600401610c4390612b3a565b60405180910390fd5b80915050919050565b60008073ffffffffffffffffffffffffffffffffffffffff168273ffffffffffffffffffffffffffffffffffffffff161415610cc6576040517f08c379a0000000000000000000000000000000000000000000000000000000008152600401610cbd90612aba565b60405180910390fd5b600360008373ffffffffffffffffffffffffffffffffffffffff1673ffffffffffffffffffffffffffffffffffffffff168152602001908152602001600020549050919050565b610d156117c8565b610d1f6000611846565b565b6000600760009054906101000a900473ffffffffffffffffffffffffffffffffffffffff16905090565b606060018054610d5a90612dbf565b80601f0160208091040260200160405190810160405280929190818152602001828054610d8690612dbf565b8015610dd35780601f10610da857610100808354040283529160200191610dd3565b820191906000526020600020905b815481529060010190602001808311610db657829003601f168201915b5050505050905090565b610def610de8611285565b838361190c565b5050565b610e04610dfe611285565b83611346565b610e43576040517f08c379a0000000000000000000000000000000000000000000000000000000008152600401610e3a906129ba565b60405180910390fd5b610e4f84848484611a79565b50505050565b6060600a60008381526020019081526020016000208054610e7590612dbf565b80601f0160208091040260200160405190810160405280929190818152602001828054610ea190612dbf565b8015610eee5780601f10610ec357610100808354040283529160200191610eee565b820191906000526020600020905b815481529060010190602001808311610ed157829003601f168201915b50505050509050919050565b600b602052826000526040600020828051602081018201805184825260208301602085012081835280955050505050508181548110610f3857600080fd5b9060005260206000200160009250925050505481565b6000610f5a60086116d5565b9050610f6660086116e3565b610f7083826116f9565b6110048160098054610f8190612dbf565b80601f0160208091040260200160405190810160405280929190818152602001828054610fad90612dbf565b8015610ffa5780601f10610fcf57610100808354040283529160200191610ffa565b820191906000526020600020905b815481529060010190602001808311610fdd57829003601f168201915b5050505050611717565b6009600a600083815260200190815260200160002090805461102590612dbf565b611030929190612075565b50600b60008473ffffffffffffffffffffffffffffffffffffffff1673ffffffffffffffffffffffffffffffffffffffff1681526020019081526020016000208260405161107e91906128ff565b9081526020016040518091039020819080600181540180825580915050600190039060005260206000200160009091909190915055505050565b6000600560008473ffffffffffffffffffffffffffffffffffffffff1673ffffffffffffffffffffffffffffffffffffffff16815260200190815260200160002060008373ffffffffffffffffffffffffffffffffffffffff1673ffffffffffffffffffffffffffffffffffffffff16815260200190815260200160002060009054906101000a900460ff16905092915050565b6111546117c8565b600073ffffffffffffffffffffffffffffffffffffffff168173ffffffffffffffffffffffffffffffffffffffff1614156111c4576040517f08c379a00000000000000000000000000000000000000000000000000000000081526004016111bb906129fa565b60405180910390fd5b6111cd81611846565b50565b60007f01ffc9a7000000000000000000000000000000000000000000000000000000007bffffffffffffffffffffffffffffffffffffffffffffffffffffffff1916827bffffffffffffffffffffffffffffffffffffffffffffffffffffffff1916149050919050565b61124381611ad5565b611282576040517f08c379a000000000000000000000000000000000000000000000000000000000815260040161127990612b3a565b60405180910390fd5b50565b600033905090565b816004600083815260200190815260200160002060006101000a81548173ffffffffffffffffffffffffffffffffffffffff021916908373ffffffffffffffffffffffffffffffffffffffff160217905550808273ffffffffffffffffffffffffffffffffffffffff1661130083610bce565b73ffffffffffffffffffffffffffffffffffffffff167f8c5be1e5ebec7d5bd14f71427d1e84f3dd0314c0f7b2291e5b200ac8c7c3b92560405160405180910390a45050565b60008061135283610bce565b90508073ffffffffffffffffffffffffffffffffffffffff168473ffffffffffffffffffffffffffffffffffffffff161480611394575061139381856110b8565b5b806113d257508373ffffffffffffffffffffffffffffffffffffffff166113ba84610625565b73ffffffffffffffffffffffffffffffffffffffff16145b91505092915050565b8273ffffffffffffffffffffffffffffffffffffffff166113fb82610bce565b73ffffffffffffffffffffffffffffffffffffffff1614611451576040517f08c379a000000000000000000000000000000000000000000000000000000000815260040161144890612a1a565b60405180910390fd5b600073ffffffffffffffffffffffffffffffffffffffff168273ffffffffffffffffffffffffffffffffffffffff1614156114c1576040517f08c379a00000000000000000000000000000000000000000000000000000000081526004016114b890612a5a565b60405180910390fd5b6114ce8383836001611b16565b8273ffffffffffffffffffffffffffffffffffffffff166114ee82610bce565b73ffffffffffffffffffffffffffffffffffffffff1614611544576040517f08c379a000000000000000000000000000000000000000000000000000000000815260040161153b90612a1a565b60405180910390fd5b6004600082815260200190815260200160002060006101000a81549073ffffffffffffffffffffffffffffffffffffffff02191690556001600360008573ffffffffffffffffffffffffffffffffffffffff1673ffffffffffffffffffffffffffffffffffffffff168152602001908152602001600020600082825403925050819055506001600360008473ffffffffffffffffffffffffffffffffffffffff1673ffffffffffffffffffffffffffffffffffffffff16815260200190815260200160002060008282540192505081905550816002600083815260200190815260200160002060006101000a81548173ffffffffffffffffffffffffffffffffffffffff021916908373ffffffffffffffffffffffffffffffffffffffff160217905550808273ffffffffffffffffffffffffffffffffffffffff168473ffffffffffffffffffffffffffffffffffffffff167fddf252ad1be2c89b69c2b068fc378daa952ba7f163c4a11628f55a4df523b3ef60405160405180910390a46116d08383836001611c3c565b505050565b600081600001549050919050565b6001816000016000828254019250508190555050565b611713828260405180602001604052806000815250611c42565b5050565b61172082611ad5565b61175f576040517f08c379a000000000000000000000000000000000000000000000000000000000815260040161175690612ada565b60405180910390fd5b80600660008481526020019081526020016000209080519060200190611786929190612102565b505050565b60006002600083815260200190815260200160002060009054906101000a900473ffffffffffffffffffffffffffffffffffffffff169050919050565b6117d0611285565b73ffffffffffffffffffffffffffffffffffffffff166117ee610d21565b73ffffffffffffffffffffffffffffffffffffffff1614611844576040517f08c379a000000000000000000000000000000000000000000000000000000000815260040161183b90612b1a565b60405180910390fd5b565b6000600760009054906101000a900473ffffffffffffffffffffffffffffffffffffffff16905081600760006101000a81548173ffffffffffffffffffffffffffffffffffffffff021916908373ffffffffffffffffffffffffffffffffffffffff1602179055508173ffffffffffffffffffffffffffffffffffffffff168173ffffffffffffffffffffffffffffffffffffffff167f8be0079c531659141344cd1fd0a4f28419497f9722a3daafe3b4186f6b6457e060405160405180910390a35050565b8173ffffffffffffffffffffffffffffffffffffffff168373ffffffffffffffffffffffffffffffffffffffff16141561197b576040517f08c379a000000000000000000000000000000000000000000000000000000000815260040161197290612a7a565b60405180910390fd5b80600560008573ffffffffffffffffffffffffffffffffffffffff1673ffffffffffffffffffffffffffffffffffffffff16815260200190815260200160002060008473ffffffffffffffffffffffffffffffffffffffff1673ffffffffffffffffffffffffffffffffffffffff16815260200190815260200160002060006101000a81548160ff0219169083151502179055508173ffffffffffffffffffffffffffffffffffffffff168373ffffffffffffffffffffffffffffffffffffffff167f17307eab39ab6107e8899845ad3d59bd9653f200f220920489ca2b5937696c3183604051611a6c919061297d565b60405180910390a3505050565b611a848484846113db565b611a9084848484611c9d565b611acf576040517f08c379a0000000000000000000000000000000000000000000000000000000008152600401611ac6906129da565b60405180910390fd5b50505050565b60008073ffffffffffffffffffffffffffffffffffffffff16611af78361178b565b73ffffffffffffffffffffffffffffffffffffffff1614159050919050565b6001811115611c3657600073ffffffffffffffffffffffffffffffffffffffff168473ffffffffffffffffffffffffffffffffffffffff1614611baa5780600360008673ffffffffffffffffffffffffffffffffffffffff1673ffffffffffffffffffffffffffffffffffffffff1681526020019081526020016000206000828254611ba29190612cd5565b925050819055505b600073ffffffffffffffffffffffffffffffffffffffff168373ffffffffffffffffffffffffffffffffffffffff1614611c355780600360008573ffffffffffffffffffffffffffffffffffffffff1673ffffffffffffffffffffffffffffffffffffffff1681526020019081526020016000206000828254611c2d9190612c7f565b925050819055505b5b50505050565b50505050565b611c4c8383611e34565b611c596000848484611c9d565b611c98576040517f08c379a0000000000000000000000000000000000000000000000000000000008152600401611c8f906129da565b60405180910390fd5b505050565b6000611cbe8473ffffffffffffffffffffffffffffffffffffffff16612052565b15611e27578373ffffffffffffffffffffffffffffffffffffffff1663150b7a02611ce7611285565b8786866040518563ffffffff1660e01b8152600401611d099493929190612931565b602060405180830381600087803b158015611d2357600080fd5b505af1925050508015611d5457506040513d601f19601f82011682018060405250810190611d5191906125d0565b60015b611dd7573d8060008114611d84576040519150601f19603f3d011682016040523d82523d6000602084013e611d89565b606091505b50600081511415611dcf576040517f08c379a0000000000000000000000000000000000000000000000000000000008152600401611dc6906129da565b60405180910390fd5b805181602001fd5b63150b7a0260e01b7bffffffffffffffffffffffffffffffffffffffffffffffffffffffff1916817bffffffffffffffffffffffffffffffffffffffffffffffffffffffff191614915050611e2c565b600190505b949350505050565b600073ffffffffffffffffffffffffffffffffffffffff168273ffffffffffffffffffffffffffffffffffffffff161415611ea4576040517f08c379a0000000000000000000000000000000000000000000000000000000008152600401611e9b90612afa565b60405180910390fd5b611ead81611ad5565b15611eed576040517f08c379a0000000000000000000000000000000000000000000000000000000008152600401611ee490612a3a565b60405180910390fd5b611efb600083836001611b16565b611f0481611ad5565b15611f44576040517f08c379a0000000000000000000000000000000000000000000000000000000008152600401611f3b90612a3a565b60405180910390fd5b6001600360008473ffffffffffffffffffffffffffffffffffffffff1673ffffffffffffffffffffffffffffffffffffffff16815260200190815260200160002060008282540192505081905550816002600083815260200190815260200160002060006101000a81548173ffffffffffffffffffffffffffffffffffffffff021916908373ffffffffffffffffffffffffffffffffffffffff160217905550808273ffffffffffffffffffffffffffffffffffffffff16600073ffffffffffffffffffffffffffffffffffffffff167fddf252ad1be2c89b69c2b068fc378daa952ba7f163c4a11628f55a4df523b3ef60405160405180910390a461204e600083836001611c3c565b5050565b6000808273ffffffffffffffffffffffffffffffffffffffff163b119050919050565b82805461208190612dbf565b90600052602060002090601f0160209004810192826120a357600085556120f1565b82601f106120b457805485556120f1565b828001600101855582156120f157600052602060002091601f016020900482015b828111156120f05782548255916001019190600101906120d5565b5b5090506120fe9190612188565b5090565b82805461210e90612dbf565b90600052602060002090601f0160209004810192826121305760008555612177565b82601f1061214957805160ff1916838001178555612177565b82800160010185558215612177579182015b8281111561217657825182559160200191906001019061215b565b5b5090506121849190612188565b5090565b5b808211156121a1576000816000905550600101612189565b5090565b60006121b86121b384612bda565b612bb5565b9050828152602081018484840111156121d057600080fd5b6121db848285612d7d565b509392505050565b60006121f66121f184612c0b565b612bb5565b90508281526020810184848401111561220e57600080fd5b612219848285612d7d565b509392505050565b600081359050612230816132ec565b92915050565b60008135905061224581613303565b92915050565b60008135905061225a8161331a565b92915050565b60008151905061226f8161331a565b92915050565b600082601f83011261228657600080fd5b81356122968482602086016121a5565b91505092915050565b600082601f8301126122b057600080fd5b81356122c08482602086016121e3565b91505092915050565b6000813590506122d881613331565b92915050565b6000602082840312156122f057600080fd5b60006122fe84828501612221565b91505092915050565b6000806040838503121561231a57600080fd5b600061232885828601612221565b925050602061233985828601612221565b9150509250929050565b60008060006060848603121561235857600080fd5b600061236686828701612221565b935050602061237786828701612221565b925050604084013567ffffffffffffffff81111561239457600080fd5b6123a08682870161229f565b9150509250925092565b6000806000606084860312156123bf57600080fd5b60006123cd86828701612221565b93505060206123de86828701612221565b92505060406123ef868287016122c9565b9150509250925092565b6000806000806080858703121561240f57600080fd5b600061241d87828801612221565b945050602061242e87828801612221565b935050604061243f878288016122c9565b925050606085013567ffffffffffffffff81111561245c57600080fd5b61246887828801612275565b91505092959194509250565b6000806040838503121561248757600080fd5b600061249585828601612221565b92505060206124a685828601612236565b9150509250929050565b600080604083850312156124c357600080fd5b60006124d185828601612221565b925050602083013567ffffffffffffffff8111156124ee57600080fd5b6124fa8582860161229f565b9150509250929050565b60008060006060848603121561251957600080fd5b600061252786828701612221565b935050602084013567ffffffffffffffff81111561254457600080fd5b6125508682870161229f565b9250506040612561868287016122c9565b9150509250925092565b6000806040838503121561257e57600080fd5b600061258c85828601612221565b925050602061259d858286016122c9565b9150509250929050565b6000602082840312156125b957600080fd5b60006125c78482850161224b565b91505092915050565b6000602082840312156125e257600080fd5b60006125f084828501612260565b91505092915050565b60006020828403121561260b57600080fd5b6000612619848285016122c9565b91505092915050565b61262b81612d09565b82525050565b61263a81612d1b565b82525050565b600061264b82612c3c565b6126558185612c52565b9350612665818560208601612d8c565b61266e81612ef8565b840191505092915050565b600061268482612c47565b61268e8185612c63565b935061269e818560208601612d8c565b6126a781612ef8565b840191505092915050565b60006126bd82612c47565b6126c78185612c74565b93506126d7818560208601612d8c565b80840191505092915050565b60006126f0602d83612c63565b91506126fb82612f09565b604082019050919050565b6000612713603283612c63565b915061271e82612f58565b604082019050919050565b6000612736602683612c63565b915061274182612fa7565b604082019050919050565b6000612759602583612c63565b915061276482612ff6565b604082019050919050565b600061277c601c83612c63565b915061278782613045565b602082019050919050565b600061279f602483612c63565b91506127aa8261306e565b604082019050919050565b60006127c2601983612c63565b91506127cd826130bd565b602082019050919050565b60006127e5602a83612c63565b91506127f0826130e6565b604082019050919050565b6000612808602983612c63565b915061281382613135565b604082019050919050565b600061282b602e83612c63565b915061283682613184565b604082019050919050565b600061284e602083612c63565b9150612859826131d3565b602082019050919050565b6000612871602083612c63565b915061287c826131fc565b602082019050919050565b6000612894601883612c63565b915061289f82613225565b602082019050919050565b60006128b7602183612c63565b91506128c28261324e565b604082019050919050565b60006128da603d83612c63565b91506128e58261329d565b604082019050919050565b6128f981612d73565b82525050565b600061290b82846126b2565b915081905092915050565b600060208201905061292b6000830184612622565b92915050565b60006080820190506129466000830187612622565b6129536020830186612622565b61296060408301856128f0565b81810360608301526129728184612640565b905095945050505050565b60006020820190506129926000830184612631565b92915050565b600060208201905081810360008301526129b28184612679565b905092915050565b600060208201905081810360008301526129d3816126e3565b9050919050565b600060208201905081810360008301526129f381612706565b9050919050565b60006020820190508181036000830152612a1381612729565b9050919050565b60006020820190508181036000830152612a338161274c565b9050919050565b60006020820190508181036000830152612a538161276f565b9050919050565b60006020820190508181036000830152612a7381612792565b9050919050565b60006020820190508181036000830152612a93816127b5565b9050919050565b60006020820190508181036000830152612ab3816127d8565b9050919050565b60006020820190508181036000830152612ad3816127fb565b9050919050565b60006020820190508181036000830152612af38161281e565b9050919050565b60006020820190508181036000830152612b1381612841565b9050919050565b60006020820190508181036000830152612b3381612864565b9050919050565b60006020820190508181036000830152612b5381612887565b9050919050565b60006020820190508181036000830152612b73816128aa565b9050919050565b60006020820190508181036000830152612b93816128cd565b9050919050565b6000602082019050612baf60008301846128f0565b92915050565b6000612bbf612bd0565b9050612bcb8282612df1565b919050565b6000604051905090565b600067ffffffffffffffff821115612bf557612bf4612ec9565b5b612bfe82612ef8565b9050602081019050919050565b600067ffffffffffffffff821115612c2657612c25612ec9565b5b612c2f82612ef8565b9050602081019050919050565b600081519050919050565b600081519050919050565b600082825260208201905092915050565b600082825260208201905092915050565b600081905092915050565b6000612c8a82612d73565b9150612c9583612d73565b9250827fffffffffffffffffffffffffffffffffffffffffffffffffffffffffffffffff03821115612cca57612cc9612e6b565b5b828201905092915050565b6000612ce082612d73565b9150612ceb83612d73565b925082821015612cfe57612cfd612e6b565b5b828203905092915050565b6000612d1482612d53565b9050919050565b60008115159050919050565b60007fffffffff0000000000000000000000000000000000000000000000000000000082169050919050565b600073ffffffffffffffffffffffffffffffffffffffff82169050919050565b6000819050919050565b82818337600083830152505050565b60005b83811015612daa578082015181840152602081019050612d8f565b83811115612db9576000848401525b50505050565b60006002820490506001821680612dd757607f821691505b60208210811415612deb57612dea612e9a565b5b50919050565b612dfa82612ef8565b810181811067ffffffffffffffff82111715612e1957612e18612ec9565b5b80604052505050565b6000612e2d82612d73565b91507fffffffffffffffffffffffffffffffffffffffffffffffffffffffffffffffff821415612e6057612e5f612e6b565b5b600182019050919050565b7f4e487b7100000000000000000000000000000000000000000000000000000000600052601160045260246000fd5b7f4e487b7100000000000000000000000000000000000000000000000000000000600052602260045260246000fd5b7f4e487b7100000000000000000000000000000000000000000000000000000000600052604160045260246000fd5b6000601f19601f8301169050919050565b7f4552433732313a2063616c6c6572206973206e6f7420746f6b656e206f776e6560008201527f72206f7220617070726f76656400000000000000000000000000000000000000602082015250565b7f4552433732313a207472616e7366657220746f206e6f6e20455243373231526560008201527f63656976657220696d706c656d656e7465720000000000000000000000000000602082015250565b7f4f776e61626c653a206e6577206f776e657220697320746865207a65726f206160008201527f6464726573730000000000000000000000000000000000000000000000000000602082015250565b7f4552433732313a207472616e736665722066726f6d20696e636f72726563742060008201527f6f776e6572000000000000000000000000000000000000000000000000000000602082015250565b7f4552433732313a20746f6b656e20616c7265616479206d696e74656400000000600082015250565b7f4552433732313a207472616e7366657220746f20746865207a65726f2061646460008201527f7265737300000000000000000000000000000000000000000000000000000000602082015250565b7f4552433732313a20617070726f766520746f2063616c6c657200000000000000600082015250565b7f53656c6c657220646f65736e7420686176652074686520636f72726573706f6e60008201527f64696e6720746f6b656e00000000000000000000000000000000000000000000602082015250565b7f4552433732313a2061646472657373207a65726f206973206e6f74206120766160008201527f6c6964206f776e65720000000000000000000000000000000000000000000000602082015250565b7f45524337323155524953746f726167653a2055524920736574206f66206e6f6e60008201527f6578697374656e7420746f6b656e000000000000000000000000000000000000602082015250565b7f4552433732313a206d696e7420746f20746865207a65726f2061646472657373600082015250565b7f4f776e61626c653a2063616c6c6572206973206e6f7420746865206f776e6572600082015250565b7f4552433732313a20696e76616c696420746f6b656e2049440000000000000000600082015250565b7f4552433732313a20617070726f76616c20746f2063757272656e74206f776e6560008201527f7200000000000000000000000000000000000000000000000000000000000000602082015250565b7f4552433732313a20617070726f76652063616c6c6572206973206e6f7420746f60008201527f6b656e206f776e6572206f7220617070726f76656420666f7220616c6c000000602082015250565b6132f581612d09565b811461330057600080fd5b50565b61330c81612d1b565b811461331757600080fd5b50565b61332381612d27565b811461332e57600080fd5b50565b61333a81612d73565b811461334557600080fd5b5056fea264697066735822122021a0927cf40aa93d2d2c5906b8114eb4e03c044a643baf29964dcb4cf7bf6f9664736f6c6343000801003368747470733a2f2f676174657761792e70696e6174612e636c6f75642f697066732f516d52446e6b614845455634776b32764e6e794b386348663769443674547a483942664835783543613973435143",
  "immutableReferences": {},
  "source": "// SPDX-License-Identifier: MIT\npragma solidity >=0.7.21 <0.9.0;\n\nimport \"@openzeppelin/contracts/token/ERC721/ERC721.sol\"; \nimport \"@openzeppelin/contracts/token/ERC721/extensions/ERC721URIStorage.sol\";\nimport \"@openzeppelin/contracts/access/Ownable.sol\";\nimport \"@openzeppelin/contracts/utils/Counters.sol\";\n\ncontract MyPROP is ERC721, ERC721URIStorage, Ownable {\n    using Counters for Counters.Counter;\n\n    Counters.Counter private _tokenIdCounter;\n\n    constructor() ERC721(\"MyPROP\", \"PRP\") {}\n\n    string uri = \"https://gateway.pinata.cloud/ipfs/QmRDnkaHEEV4wk2vNnyK8cHf7iD6tTzH9BfH5x5Ca9sCQC\";\n    mapping(uint=>string) tokenURIs;\n\n    function safeMint(address to) public payable {\n        uint256 tokenId = _tokenIdCounter.current();\n        _tokenIdCounter.increment();\n        _safeMint(to, tokenId);\n        _setTokenURI(tokenId, uri);\n        tokenURIs[tokenId] = uri;\n    }\n    mapping(address => mapping(string=>uint[])) public ownerDetails;\n\n    function safeMint(address to, string memory propertyId) public payable {\n        uint256 tokenId = _tokenIdCounter.current();\n        _tokenIdCounter.increment();\n        _safeMint(to, tokenId);\n        _setTokenURI(tokenId, uri);\n        tokenURIs[tokenId] = uri;\n        ownerDetails[to][propertyId].push(tokenId);\n    }\n\n    function transfer(address from, address to, string memory propertyId) public payable{\n        uint tknId = ownerDetails[from][propertyId][0];\n        require(tknId>0, \"Seller doesnt have the corresponding token\");\n        safeTransferFrom(from, to, tknId);\n        ownerDetails[to][propertyId].push(tknId);\n        uint[] storage tokens = ownerDetails[from][propertyId];\n        for(uint i = 1;i<tokens.length;i++){\n            tokens[i]=tokens[i++];\n        }\n        tokens.pop();\n    }\n\n\n    // The following functions are overrides required by Solidity.\n    function _burn(uint256 tokenId) internal override(ERC721, ERC721URIStorage) {\n        super._burn(tokenId);\n    }\n\n    function tokenURI(uint256 tokenId)\n        public\n        view\n        override(ERC721, ERC721URIStorage)\n        returns (string memory)\n    {\n        return tokenURIs[tokenId];\n    }\n}\n",
  "sourcePath": "/Users/shubhankarkumar/Documents/Cryproperty/contract/contracts/MyPROP.sol",
  "compiler": {
    "name": "solc",
    "version": "0.8.1+commit.df193b15.Emscripten.clang"
  },
  "schemaVersion": "3.4.10",
  "updatedAt": "2022-12-08T05:10:02.525Z",
  "networkType": "ethereum",
  "devdoc": {
    "kind": "dev",
    "methods": {
      "approve(address,uint256)": {
        "details": "See {IERC721-approve}."
      },
      "balanceOf(address)": {
        "details": "See {IERC721-balanceOf}."
      },
      "getApproved(uint256)": {
        "details": "See {IERC721-getApproved}."
      },
      "isApprovedForAll(address,address)": {
        "details": "See {IERC721-isApprovedForAll}."
      },
      "name()": {
        "details": "See {IERC721Metadata-name}."
      },
      "owner()": {
        "details": "Returns the address of the current owner."
      },
      "ownerOf(uint256)": {
        "details": "See {IERC721-ownerOf}."
      },
      "renounceOwnership()": {
        "details": "Leaves the contract without owner. It will not be possible to call `onlyOwner` functions anymore. Can only be called by the current owner. NOTE: Renouncing ownership will leave the contract without an owner, thereby removing any functionality that is only available to the owner."
      },
      "safeTransferFrom(address,address,uint256)": {
        "details": "See {IERC721-safeTransferFrom}."
      },
      "safeTransferFrom(address,address,uint256,bytes)": {
        "details": "See {IERC721-safeTransferFrom}."
      },
      "setApprovalForAll(address,bool)": {
        "details": "See {IERC721-setApprovalForAll}."
      },
      "supportsInterface(bytes4)": {
        "details": "See {IERC165-supportsInterface}."
      },
      "symbol()": {
        "details": "See {IERC721Metadata-symbol}."
      },
      "transferFrom(address,address,uint256)": {
        "details": "See {IERC721-transferFrom}."
      },
      "transferOwnership(address)": {
        "details": "Transfers ownership of the contract to a new account (`newOwner`). Can only be called by the current owner."
      }
    },
    "version": 1
  },
  "userdoc": {
    "kind": "user",
    "methods": {},
    "version": 1
  }
}