{
  "contractName": "Trading",
  "abi": [
    {
      "inputs": [
        {
          "internalType": "string",
          "name": "propertyId",
          "type": "string"
        }
      ],
      "name": "buy",
      "outputs": [
        {
          "internalType": "string",
          "name": "",
          "type": "string"
        }
      ],
      "stateMutability": "payable",
      "type": "function",
      "payable": true
    },
    {
      "inputs": [
        {
          "internalType": "address",
          "name": "useraddress",
          "type": "address"
        },
        {
          "internalType": "string",
          "name": "propertyId",
          "type": "string"
        }
      ],
      "name": "sell",
      "outputs": [
        {
          "internalType": "address",
          "name": "",
          "type": "address"
        }
      ],
      "stateMutability": "payable",
      "type": "function",
      "payable": true
    }
  ],
  "bytecode": "0x608060405234801561001057600080fd5b5061103e806100206000396000f3fe6080604052600436106100295760003560e01c8063492cc7691461002e578063655f272e1461005e575b600080fd5b61004860048036038101906100439190610b13565b61008e565b6040516100559190610c6f565b60405180910390f35b61007860048036038101906100739190610abf565b6105e3565b6040516100859190610c39565b60405180910390f35b606060006001836040516100a29190610c22565b9081526020016040518091039020905060008160000160003373ffffffffffffffffffffffffffffffffffffffff1673ffffffffffffffffffffffffffffffffffffffff1681526020019081526020016000205414610136576040517f08c379a000000000000000000000000000000000000000000000000000000000815260040161012d90610c91565b60405180910390fd5b60006002846040516101489190610c22565b908152602001604051809103902090508060020160009054906101000a900460ff16156104c4576000816001016000815481106101ae577f4e487b7100000000000000000000000000000000000000000000000000000000600052603260045260246000fd5b9060005260206000200160009054906101000a900473ffffffffffffffffffffffffffffffffffffffff16905060005b600183600101805490506101f29190610da4565b811015610303578260010160018261020a9190610d4e565b81548110610241577f4e487b7100000000000000000000000000000000000000000000000000000000600052603260045260246000fd5b9060005260206000200160009054906101000a900473ffffffffffffffffffffffffffffffffffffffff168360010182815481106102a8577f4e487b7100000000000000000000000000000000000000000000000000000000600052603260045260246000fd5b9060005260206000200160006101000a81548173ffffffffffffffffffffffffffffffffffffffff021916908373ffffffffffffffffffffffffffffffffffffffff16021790555080806102fb90610ee7565b9150506101de565b508160010180548061033e577f4e487b7100000000000000000000000000000000000000000000000000000000600052603160045260246000fd5b6001900381819060005260206000200160006101000a81549073ffffffffffffffffffffffffffffffffffffffff021916905590558160000160008273ffffffffffffffffffffffffffffffffffffffff1673ffffffffffffffffffffffffffffffffffffffff16815260200190815260200160002060008154809291906103c590610e8c565b91905055506000826001018054905014156103f85760008260020160006101000a81548160ff0219169083151502179055505b60008054906101000a900473ffffffffffffffffffffffffffffffffffffffff1673ffffffffffffffffffffffffffffffffffffffff1663338ccd7834836040518363ffffffff1660e01b81526004016104529190610c54565b6000604051808303818588803b15801561046b57600080fd5b505af115801561047f573d6000803e3d6000fd5b50505050506040518060400160405280601681526020017f5472616e73616374696f6e2053756363657366756c6c0000000000000000000081525093505050506105de565b60018260020160006101000a81548160ff0219169083151502179055508160000160003373ffffffffffffffffffffffffffffffffffffffff1673ffffffffffffffffffffffffffffffffffffffff168152602001908152602001600020600081548092919061053390610ee7565b9190505550600033905082600101819080600181540180825580915050600190039060005260206000200160009091909190916101000a81548173ffffffffffffffffffffffffffffffffffffffff021916908373ffffffffffffffffffffffffffffffffffffffff1602179055506040518060400160405280601281526020017f526571756573742052656769737465726564000000000000000000000000000081525093505050505b919050565b6000806002836040516105f69190610c22565b9081526020016040518091039020905060008160000160008673ffffffffffffffffffffffffffffffffffffffff1673ffffffffffffffffffffffffffffffffffffffff168152602001908152602001600020541461068a576040517f08c379a000000000000000000000000000000000000000000000000000000000815260040161068190610cb1565b60405180910390fd5b600060018460405161069c9190610c22565b908152602001604051809103902090508060020160009054906101000a900460ff161561095757600081600101600081548110610702577f4e487b7100000000000000000000000000000000000000000000000000000000600052603260045260246000fd5b9060005260206000200160009054906101000a900473ffffffffffffffffffffffffffffffffffffffff16905060005b600183600101805490506107469190610da4565b811015610857578260010160018261075e9190610d4e565b81548110610795577f4e487b7100000000000000000000000000000000000000000000000000000000600052603260045260246000fd5b9060005260206000200160009054906101000a900473ffffffffffffffffffffffffffffffffffffffff168360010182815481106107fc577f4e487b7100000000000000000000000000000000000000000000000000000000600052603260045260246000fd5b9060005260206000200160006101000a81548173ffffffffffffffffffffffffffffffffffffffff021916908373ffffffffffffffffffffffffffffffffffffffff160217905550808061084f90610ee7565b915050610732565b5081600101805480610892577f4e487b7100000000000000000000000000000000000000000000000000000000600052603160045260246000fd5b6001900381819060005260206000200160006101000a81549073ffffffffffffffffffffffffffffffffffffffff021916905590558160000160008273ffffffffffffffffffffffffffffffffffffffff1673ffffffffffffffffffffffffffffffffffffffff168152602001908152602001600020600081548092919061091990610e8c565b919050555060008260010180549050141561094c5760008260020160006101000a81548160ff0219169083151502179055505b809350505050610a3c565b60018260020160006101000a81548160ff0219169083151502179055508160000160008673ffffffffffffffffffffffffffffffffffffffff1673ffffffffffffffffffffffffffffffffffffffff16815260200190815260200160002060008154809291906109c690610ee7565b9190505550600085905082600101819080600181540180825580915050600190039060005260206000200160009091909190916101000a81548173ffffffffffffffffffffffffffffffffffffffff021916908373ffffffffffffffffffffffffffffffffffffffff1602179055508093505050505b92915050565b6000610a55610a5084610cf6565b610cd1565b905082815260208101848484011115610a6d57600080fd5b610a78848285610e4a565b509392505050565b600081359050610a8f81610ff1565b92915050565b600082601f830112610aa657600080fd5b8135610ab6848260208601610a42565b91505092915050565b60008060408385031215610ad257600080fd5b6000610ae085828601610a80565b925050602083013567ffffffffffffffff811115610afd57600080fd5b610b0985828601610a95565b9150509250929050565b600060208284031215610b2557600080fd5b600082013567ffffffffffffffff811115610b3f57600080fd5b610b4b84828501610a95565b91505092915050565b610b5d81610e14565b82525050565b610b6c81610dd8565b82525050565b6000610b7d82610d27565b610b878185610d32565b9350610b97818560208601610e59565b610ba081610f8e565b840191505092915050565b6000610bb682610d27565b610bc08185610d43565b9350610bd0818560208601610e59565b80840191505092915050565b6000610be9601d83610d32565b9150610bf482610f9f565b602082019050919050565b6000610c0c601e83610d32565b9150610c1782610fc8565b602082019050919050565b6000610c2e8284610bab565b915081905092915050565b6000602082019050610c4e6000830184610b63565b92915050565b6000602082019050610c696000830184610b54565b92915050565b60006020820190508181036000830152610c898184610b72565b905092915050565b60006020820190508181036000830152610caa81610bdc565b9050919050565b60006020820190508181036000830152610cca81610bff565b9050919050565b6000610cdb610cec565b9050610ce78282610eb6565b919050565b6000604051905090565b600067ffffffffffffffff821115610d1157610d10610f5f565b5b610d1a82610f8e565b9050602081019050919050565b600081519050919050565b600082825260208201905092915050565b600081905092915050565b6000610d5982610e0a565b9150610d6483610e0a565b9250827fffffffffffffffffffffffffffffffffffffffffffffffffffffffffffffffff03821115610d9957610d98610f30565b5b828201905092915050565b6000610daf82610e0a565b9150610dba83610e0a565b925082821015610dcd57610dcc610f30565b5b828203905092915050565b6000610de382610dea565b9050919050565b600073ffffffffffffffffffffffffffffffffffffffff82169050919050565b6000819050919050565b6000610e1f82610e26565b9050919050565b6000610e3182610e38565b9050919050565b6000610e4382610dea565b9050919050565b82818337600083830152505050565b60005b83811015610e77578082015181840152602081019050610e5c565b83811115610e86576000848401525b50505050565b6000610e9782610e0a565b91506000821415610eab57610eaa610f30565b5b600182039050919050565b610ebf82610f8e565b810181811067ffffffffffffffff82111715610ede57610edd610f5f565b5b80604052505050565b6000610ef282610e0a565b91507fffffffffffffffffffffffffffffffffffffffffffffffffffffffffffffffff821415610f2557610f24610f30565b5b600182019050919050565b7f4e487b7100000000000000000000000000000000000000000000000000000000600052601160045260246000fd5b7f4e487b7100000000000000000000000000000000000000000000000000000000600052604160045260246000fd5b6000601f19601f8301169050919050565b7f427579696e67205265717565737420616c726561647920657869737473000000600082015250565b7f53656c6c696e67205265717565737420616c7265616479206578697374730000600082015250565b610ffa81610dd8565b811461100557600080fd5b5056fea2646970667358221220ae3b5a17c97613df4aee5e9bc3e6ec41bdda0e8cdf7c608fd5aa042d2b83b52964736f6c63430008010033",
  "immutableReferences": {},
  "source": "// SPDX-License-Identifier: MIT\npragma solidity >=0.7.21 <0.9.0;\nimport \"./Trade.sol\";\ncontract Trading{\n    Trade trade;\n    struct request{\n        mapping(address=>uint) users;\n        address[] usersaddress;\n        bool exists;\n    }\n    mapping(string=>request) buyingRequests;\n    mapping(string=>request) sellingRequests;\n\n    function buy(string memory propertyId) payable public returns(string memory) {\n        request storage buyingRequest = buyingRequests[propertyId];\n        require(buyingRequest.users[msg.sender]==0, \"Buying Request already exists\");\n        request storage sellingRequest = sellingRequests[propertyId];\n        if(sellingRequest.exists){\n            address payable seller = payable(sellingRequest.usersaddress[0]);\n            for(uint i = 0;i<sellingRequest.usersaddress.length-1;i++){\n                sellingRequest.usersaddress[i]=sellingRequest.usersaddress[i+1];\n            }\n            sellingRequest.usersaddress.pop();\n            sellingRequest.users[seller]--;\n            if(sellingRequest.usersaddress.length==0){\n                sellingRequest.exists=false;\n            }\n            trade.sendMoney{value:msg.value}(seller);\n            return \"Transaction Succesfull\";\n        }\n        else{\n            buyingRequest.exists = true;\n            buyingRequest.users[msg.sender]++;\n            address payable buyer  = payable(msg.sender);\n            buyingRequest.usersaddress.push(buyer);\n            return \"Request Registered\";\n        }\n\n    }\n    function sell(address useraddress, string memory propertyId) payable public returns(address){\n        request storage sellingRequest = sellingRequests[propertyId];\n        require(sellingRequest.users[useraddress]==0, \"Selling Request already exists\");\n        request storage buyingRequest = buyingRequests[propertyId];\n        if(buyingRequest.exists){\n            address payable buyer = payable(buyingRequest.usersaddress[0]);\n            for(uint i = 0;i<buyingRequest.usersaddress.length-1;i++){\n                buyingRequest.usersaddress[i]=buyingRequest.usersaddress[i+1];\n            }\n            buyingRequest.usersaddress.pop();\n            buyingRequest.users[buyer]--;\n            if(buyingRequest.usersaddress.length==0){\n                buyingRequest.exists=false;\n            }\n            return buyer;\n        }\n        else{\n            sellingRequest.exists = true;\n            sellingRequest.users[useraddress]++;\n            address payable seller  = payable(useraddress);\n            sellingRequest.usersaddress.push(seller);\n            return seller;\n        }\n\n    }\n}\n",
  "sourcePath": "/Users/shubhankarkumar/Documents/Cryproperty/contract/contracts/Trading.sol",
  "compiler": {
    "name": "solc",
    "version": "0.8.1+commit.df193b15.Emscripten.clang"
  },
  "schemaVersion": "3.4.10",
  "updatedAt": "2022-12-08T05:10:02.516Z",
  "networkType": "ethereum",
  "devdoc": {
    "kind": "dev",
    "methods": {},
    "version": 1
  },
  "userdoc": {
    "kind": "user",
    "methods": {},
    "version": 1
  }
}