{
  "contractName": "Trading",
  "abi": [
    {
      "constant": false,
      "inputs": [
        {
          "internalType": "address",
          "name": "useraddress",
          "type": "address"
        },
        {
          "internalType": "string",
          "name": "propertyId",
          "type": "string"
        }
      ],
      "name": "buy",
      "outputs": [],
      "payable": true,
      "stateMutability": "payable",
      "type": "function"
    },
    {
      "constant": false,
      "inputs": [
        {
          "internalType": "address",
          "name": "useraddress",
          "type": "address"
        },
        {
          "internalType": "string",
          "name": "propertyId",
          "type": "string"
        }
      ],
      "name": "sell",
      "outputs": [],
      "payable": true,
      "stateMutability": "payable",
      "type": "function"
    }
  ],
  "bytecode": "0x608060405234801561001057600080fd5b50610a85806100206000396000f3fe6080604052600436106100295760003560e01c8063655f272e1461002e5780638345183814610109575b600080fd5b6101076004803603604081101561004457600080fd5b81019080803573ffffffffffffffffffffffffffffffffffffffff1690602001909291908035906020019064010000000081111561008157600080fd5b82018360208201111561009357600080fd5b803590602001918460018302840111640100000000831117156100b557600080fd5b91908080601f016020809104026020016040519081016040528093929190818152602001838380828437600081840152601f19601f8201169050808301925050505050505091929192905050506101e4565b005b6101e26004803603604081101561011f57600080fd5b81019080803573ffffffffffffffffffffffffffffffffffffffff1690602001909291908035906020019064010000000081111561015c57600080fd5b82018360208201111561016e57600080fd5b8035906020019184600183028401116401000000008311171561019057600080fd5b91908080601f016020809104026020016040519081016040528093929190818152602001838380828437600081840152601f19601f82011690508083019250505050505050919291929050505061060c565b005b60006002826040518082805190602001908083835b6020831061021c57805182526020820191506020810190506020830392506101f9565b6001836020036101000a038019825116818451168082178552505050505050905001915050908152602001604051809103902090508060000160008473ffffffffffffffffffffffffffffffffffffffff1673ffffffffffffffffffffffffffffffffffffffff16815260200190815260200160002060009054906101000a900460ff1615610313576040517f08c379a000000000000000000000000000000000000000000000000000000000815260040180806020018281038252601e8152602001807f53656c6c696e67205265717565737420616c726561647920657869737473000081525060200191505060405180910390fd5b61031b610a34565b6001836040518082805190602001908083835b60208310610351578051825260208201915060208101905060208303925061032e565b6001836020036101000a03801982511681845116808217855250505050505090500191505090815260200160405180910390206040518060400160405290816001820180548060200260200160405190810160405280929190818152602001828054801561041457602002820191906000526020600020905b8160009054906101000a900473ffffffffffffffffffffffffffffffffffffffff1673ffffffffffffffffffffffffffffffffffffffff16815260200190600101908083116103ca575b505050505081526020016002820160009054906101000a900460ff1615151515815250509050806020015115610520576000816000015160008151811061045757fe5b602002602001015190506000809054906101000a900473ffffffffffffffffffffffffffffffffffffffff1673ffffffffffffffffffffffffffffffffffffffff1663338ccd7834876040518363ffffffff1660e01b8152600401808273ffffffffffffffffffffffffffffffffffffffff1673ffffffffffffffffffffffffffffffffffffffff1681526020019150506000604051808303818588803b15801561050157600080fd5b505af1158015610515573d6000803e3d6000fd5b505050505050610606565b60018260020160006101000a81548160ff02191690831515021790555060018260000160008673ffffffffffffffffffffffffffffffffffffffff1673ffffffffffffffffffffffffffffffffffffffff16815260200190815260200160002060006101000a81548160ff0219169083151502179055506000849050826001018190806001815401808255809150509060018203906000526020600020016000909192909190916101000a81548173ffffffffffffffffffffffffffffffffffffffff021916908373ffffffffffffffffffffffffffffffffffffffff16021790555050505b50505050565b60006001826040518082805190602001908083835b602083106106445780518252602082019150602081019050602083039250610621565b6001836020036101000a038019825116818451168082178552505050505050905001915050908152602001604051809103902090508060000160008473ffffffffffffffffffffffffffffffffffffffff1673ffffffffffffffffffffffffffffffffffffffff16815260200190815260200160002060009054906101000a900460ff161561073b576040517f08c379a000000000000000000000000000000000000000000000000000000000815260040180806020018281038252601d8152602001807f427579696e67205265717565737420616c72656164792065786973747300000081525060200191505060405180910390fd5b610743610a34565b6002836040518082805190602001908083835b602083106107795780518252602082019150602081019050602083039250610756565b6001836020036101000a03801982511681845116808217855250505050505090500191505090815260200160405180910390206040518060400160405290816001820180548060200260200160405190810160405280929190818152602001828054801561083c57602002820191906000526020600020905b8160009054906101000a900473ffffffffffffffffffffffffffffffffffffffff1673ffffffffffffffffffffffffffffffffffffffff16815260200190600101908083116107f2575b505050505081526020016002820160009054906101000a900460ff1615151515815250509050806020015115610948576000816000015160008151811061087f57fe5b602002602001015190506000809054906101000a900473ffffffffffffffffffffffffffffffffffffffff1673ffffffffffffffffffffffffffffffffffffffff1663338ccd7834836040518363ffffffff1660e01b8152600401808273ffffffffffffffffffffffffffffffffffffffff1673ffffffffffffffffffffffffffffffffffffffff1681526020019150506000604051808303818588803b15801561092957600080fd5b505af115801561093d573d6000803e3d6000fd5b505050505050610a2e565b60018260020160006101000a81548160ff02191690831515021790555060018260000160008673ffffffffffffffffffffffffffffffffffffffff1673ffffffffffffffffffffffffffffffffffffffff16815260200190815260200160002060006101000a81548160ff0219169083151502179055506000849050826001018190806001815401808255809150509060018203906000526020600020016000909192909190916101000a81548173ffffffffffffffffffffffffffffffffffffffff021916908373ffffffffffffffffffffffffffffffffffffffff16021790555050505b50505050565b604051806040016040528060608152602001600015158152509056fea265627a7a723158206f271e48cb91939d2909bf6bc3bd83024993d321680a84298d2bcb4b494db53d64736f6c63430005100032",
  "source": "pragma solidity >=0.4.21 <0.7.0;\nimport \"./Trade.sol\";\ncontract Trading{\n    Trade trade;\n    struct request{\n        mapping(address=>bool) users;\n        address payable[] usersaddress;\n        bool exists;\n    }\n    mapping(string=>request) buyingRequests;\n    mapping(string=>request) sellingRequests;\n\n    function buy(address useraddress, string memory propertyId) payable public {\n        request storage buyingRequest = buyingRequests[propertyId];\n        require(!buyingRequest.users[useraddress], \"Buying Request already exists\");\n        request memory sellingRequest = sellingRequests[propertyId];\n        if(sellingRequest.exists){\n            address payable seller = sellingRequest.usersaddress[0];\n            trade.sendMoney.value(msg.value)(seller);\n        }\n        else{\n            buyingRequest.exists = true;\n            buyingRequest.users[useraddress] = true;\n            address payable buyer  = address(uint160(address(useraddress)));\n            buyingRequest.usersaddress.push(buyer);\n        }\n\n    }\n    function sell(address useraddress, string memory propertyId) payable public {\n        request storage sellingRequest = sellingRequests[propertyId];\n        require(!sellingRequest.users[useraddress], \"Selling Request already exists\");\n        request memory buyingRequest = buyingRequests[propertyId];\n        if(buyingRequest.exists){\n            address payable buyer = buyingRequest.usersaddress[0];\n            trade.sendMoney.value(msg.value)(useraddress);\n        }\n        else{\n            sellingRequest.exists = true;\n            sellingRequest.users[useraddress] = true;\n            address payable seller  = address(uint160(address(useraddress)));\n            sellingRequest.usersaddress.push(seller);\n        }\n\n    }\n}\n",
  "sourcePath": "/Users/shubhankarkumar/Documents/Cryproperty/contract/contracts/Trading.sol",
  "compiler": {
    "name": "solc",
    "version": "0.5.16+commit.9c3226ce.Emscripten.clang"
  },
  "schemaVersion": "3.4.10",
  "updatedAt": "2022-11-15T02:47:38.097Z",
  "networkType": "ethereum",
  "devdoc": {
    "methods": {}
  },
  "userdoc": {
    "methods": {}
  }
}