{
  "contractName": "Bid",
  "abi": [
    {
      "constant": true,
      "inputs": [
        {
          "internalType": "string",
          "name": "",
          "type": "string"
        }
      ],
      "name": "propertyVoteDetails",
      "outputs": [
        {
          "internalType": "uint256",
          "name": "voteCount",
          "type": "uint256"
        }
      ],
      "payable": false,
      "stateMutability": "view",
      "type": "function"
    },
    {
      "constant": false,
      "inputs": [
        {
          "internalType": "string",
          "name": "propertyId",
          "type": "string"
        }
      ],
      "name": "vote",
      "outputs": [],
      "payable": false,
      "stateMutability": "nonpayable",
      "type": "function"
    },
    {
      "constant": true,
      "inputs": [
        {
          "internalType": "string",
          "name": "propertyId",
          "type": "string"
        }
      ],
      "name": "getVoteCount",
      "outputs": [
        {
          "internalType": "uint256",
          "name": "",
          "type": "uint256"
        }
      ],
      "payable": false,
      "stateMutability": "view",
      "type": "function"
    }
  ],
  "bytecode": "0x608060405234801561001057600080fd5b5061061a806100206000396000f3fe608060405234801561001057600080fd5b50600436106100415760003560e01c8063069953a714610046578063e65e488814610115578063fc36e15b146101e4575b600080fd5b6100ff6004803603602081101561005c57600080fd5b810190808035906020019064010000000081111561007957600080fd5b82018360208201111561008b57600080fd5b803590602001918460018302840111640100000000831117156100ad57600080fd5b91908080601f016020809104026020016040519081016040528093929190818152602001838380828437600081840152601f19601f82011690508083019250505050505050919291929050505061029f565b6040518082815260200191505060405180910390f35b6101ce6004803603602081101561012b57600080fd5b810190808035906020019064010000000081111561014857600080fd5b82018360208201111561015a57600080fd5b8035906020019184600183028401116401000000008311171561017c57600080fd5b91908080601f016020809104026020016040519081016040528093929190818152602001838380828437600081840152601f19601f82011690508083019250505050505050919291929050505061031a565b6040518082815260200191505060405180910390f35b61029d600480360360208110156101fa57600080fd5b810190808035906020019064010000000081111561021757600080fd5b82018360208201111561022957600080fd5b8035906020019184600183028401116401000000008311171561024b57600080fd5b91908080601f016020809104026020016040519081016040528093929190818152602001838380828437600081840152601f19601f82011690508083019250505050505050919291929050505061034e565b005b6000806000836040518082805190602001908083835b602083106102d857805182526020820191506020810190506020830392506102b5565b6001836020036101000a038019825116818451168082178552505050505050905001915050908152602001604051809103902090508060010154915050919050565b6000818051602081018201805184825260208301602085012081835280955050505050506000915090508060010154905081565b600080826040518082805190602001908083835b602083106103855780518252602082019150602081019050602083039250610362565b6001836020036101000a038019825116818451168082178552505050505050905001915050908152602001604051809103902090506005816001015410610434576040517f08c379a000000000000000000000000000000000000000000000000000000000815260040180806020018281038252600f8152602001807f42696464696e67206973204f766572000000000000000000000000000000000081525060200191505060405180910390fd5b60008160000190508060003373ffffffffffffffffffffffffffffffffffffffff1673ffffffffffffffffffffffffffffffffffffffff16815260200190815260200160002060009054906101000a900460ff16156104fb576040517f08c379a00000000000000000000000000000000000000000000000000000000081526004018080602001828103825260168152602001807f557365722068617320616c726561647920766f7465640000000000000000000081525060200191505060405180910390fd5b816001016000815480929190600101919050555060018260000160003373ffffffffffffffffffffffffffffffffffffffff1673ffffffffffffffffffffffffffffffffffffffff16815260200190815260200160002060006101000a81548160ff021916908315150217905550816000846040518082805190602001908083835b602083106105a0578051825260208201915060208101905060208303925061057d565b6001836020036101000a03801982511681845116808217855250505050505090500191505090815260200160405180910390206001820154816001015590505050505056fea265627a7a7231582050d91907c6c10d06517591185e97abbcfb3748ffd4b78fac7d6cac21252e4ae164736f6c63430005100032",
  "source": "pragma solidity >=0.4.21 <0.7.0;\ncontract Bid{\n    struct voteDetails {\n        mapping (address => bool) userIds;\n        uint voteCount;\n    }\n    mapping(string=>voteDetails) public propertyVoteDetails;\n\n    function vote(string memory propertyId)public{\n        voteDetails storage vd = propertyVoteDetails[propertyId];\n        require(vd.voteCount <5, \"Bidding is Over\");\n        mapping (address => bool) storage userIds = vd.userIds;\n        require(!userIds[msg.sender], \"User has already voted\");\n        vd.voteCount++;\n        vd.userIds[msg.sender] = true;\n        propertyVoteDetails[propertyId] = vd;\n    }\n\n    function getVoteCount(string memory propertyId)public view returns (uint){\n        voteDetails storage vd = propertyVoteDetails[propertyId];\n        return vd.voteCount;\n    }\n}",
  "sourcePath": "/Users/shubhankarkumar/Documents/Cryproperty/cryproperty-contract/contracts/Bid.sol",
  "compiler": {
    "name": "solc",
    "version": "0.5.16+commit.9c3226ce.Emscripten.clang"
  },
  "schemaVersion": "3.4.10",
  "updatedAt": "2022-11-14T03:04:23.569Z",
  "networkType": "ethereum",
  "devdoc": {
    "methods": {}
  },
  "userdoc": {
    "methods": {}
  }
}