{
  "contractName": "Trade",
  "abi": [
    {
      "constant": false,
      "inputs": [
        {
          "internalType": "address",
          "name": "buyer",
          "type": "address"
        }
      ],
      "name": "sendMoney",
      "outputs": [],
      "payable": true,
      "stateMutability": "payable",
      "type": "function"
    }
  ],
  "bytecode": "0x608060405234801561001057600080fd5b506101ec806100206000396000f3fe60806040526004361061001e5760003560e01c8063338ccd7814610023575b600080fd5b6100656004803603602081101561003957600080fd5b81019080803573ffffffffffffffffffffffffffffffffffffffff169060200190929190505050610067565b005b610070816100c9565b610079336100c9565b60008190508073ffffffffffffffffffffffffffffffffffffffff166108fc349081150290604051600060405180830381858888f193505050501580156100c4573d6000803e3d6000fd5b505050565b61018b81604051602401808273ffffffffffffffffffffffffffffffffffffffff1673ffffffffffffffffffffffffffffffffffffffff1681526020019150506040516020818303038152906040527f2c2ecbc2000000000000000000000000000000000000000000000000000000007bffffffffffffffffffffffffffffffffffffffffffffffffffffffff19166020820180517bffffffffffffffffffffffffffffffffffffffffffffffffffffffff838183161783525050505061018e565b50565b60008151905060006a636f6e736f6c652e6c6f679050602083016000808483855afa505050505056fea265627a7a72315820f5be5035619da2263c0dbb598cb62e7ff1fff3416d3c2c4f1246765395ee7f8f64736f6c63430005100032",
  "source": "pragma solidity >=0.4.21 <0.7.0;\nimport \"hardhat/console.sol\";\n\ncontract Trade{\n    function sendMoney(address buyer) public payable{\n        console.log(buyer);\n        console.log(msg.sender);\n        address payable to  = address(uint160(address(buyer)));\n        address(to).transfer(msg.value);\n    }\n}",
  "sourcePath": "/Users/shubhankarkumar/Documents/Cryproperty/cryproperty-contract/contracts/Trade.sol",
  "compiler": {
    "name": "solc",
    "version": "0.5.16+commit.9c3226ce.Emscripten.clang"
  },
  "schemaVersion": "3.4.10",
  "updatedAt": "2022-11-09T19:40:37.209Z",
  "networkType": "ethereum",
  "devdoc": {
    "methods": {}
  },
  "userdoc": {
    "methods": {}
  }
}