{
  "contractName": "Trade",
  "abi": [
    {
      "constant": false,
      "inputs": [
        {
          "internalType": "address",
          "name": "buyer",
          "type": "address"
        }
      ],
      "name": "sendMoney",
      "outputs": [],
      "payable": true,
      "stateMutability": "payable",
      "type": "function"
    }
  ],
  "bytecode": "0x608060405234801561001057600080fd5b5060e68061001f6000396000f3fe608060405260043610601c5760003560e01c8063338ccd78146021575b600080fd5b606060048036036020811015603557600080fd5b81019080803573ffffffffffffffffffffffffffffffffffffffff1690602001909291905050506062565b005b60008190508073ffffffffffffffffffffffffffffffffffffffff166108fc349081150290604051600060405180830381858888f1935050505015801560ac573d6000803e3d6000fd5b50505056fea265627a7a72315820f9952be8343dfb9355f7d52bbdf1fe890cfe3336d55e9f0d8cf766124b64b87f64736f6c63430005100032",
  "source": "pragma solidity >=0.4.21 <0.7.0;\nimport \"hardhat/console.sol\";\n\ncontract Trade{\n    function sendMoney(address buyer) public payable{\n        address payable to  = address(uint160(address(buyer)));\n        address(to).transfer(msg.value);\n    }\n}",
  "sourcePath": "/Users/shubhankarkumar/Documents/Cryproperty/cryproperty-contract/contracts/Trade.sol",
  "compiler": {
    "name": "solc",
    "version": "0.5.16+commit.9c3226ce.Emscripten.clang"
  },
  "schemaVersion": "3.4.10",
  "updatedAt": "2022-11-14T05:11:12.055Z",
  "networkType": "ethereum",
  "devdoc": {
    "methods": {}
  },
  "userdoc": {
    "methods": {}
  }
}